{
  "contractName": "NftMarket",
  "abi": [
    {
      "inputs": [],
      "stateMutability": "nonpayable",
      "type": "constructor"
    },
    {
      "anonymous": false,
      "inputs": [
        {
          "indexed": true,
          "internalType": "address",
          "name": "owner",
          "type": "address"
        },
        {
          "indexed": true,
          "internalType": "address",
          "name": "approved",
          "type": "address"
        },
        {
          "indexed": true,
          "internalType": "uint256",
          "name": "tokenId",
          "type": "uint256"
        }
      ],
      "name": "Approval",
      "type": "event"
    },
    {
      "anonymous": false,
      "inputs": [
        {
          "indexed": true,
          "internalType": "address",
          "name": "owner",
          "type": "address"
        },
        {
          "indexed": true,
          "internalType": "address",
          "name": "operator",
          "type": "address"
        },
        {
          "indexed": false,
          "internalType": "bool",
          "name": "approved",
          "type": "bool"
        }
      ],
      "name": "ApprovalForAll",
      "type": "event"
    },
    {
      "anonymous": false,
      "inputs": [
        {
          "indexed": false,
          "internalType": "uint256",
          "name": "tokenId",
          "type": "uint256"
        },
        {
          "indexed": false,
          "internalType": "uint256",
          "name": "price",
          "type": "uint256"
        },
        {
          "indexed": false,
          "internalType": "address",
          "name": "creator",
          "type": "address"
        },
        {
          "indexed": false,
          "internalType": "bool",
          "name": "isListed",
          "type": "bool"
        }
      ],
      "name": "NftItemCreated",
      "type": "event"
    },
    {
      "anonymous": false,
      "inputs": [
        {
          "indexed": true,
          "internalType": "address",
          "name": "previousOwner",
          "type": "address"
        },
        {
          "indexed": true,
          "internalType": "address",
          "name": "newOwner",
          "type": "address"
        }
      ],
      "name": "OwnershipTransferred",
      "type": "event"
    },
    {
      "anonymous": false,
      "inputs": [
        {
          "indexed": true,
          "internalType": "address",
          "name": "from",
          "type": "address"
        },
        {
          "indexed": true,
          "internalType": "address",
          "name": "to",
          "type": "address"
        },
        {
          "indexed": true,
          "internalType": "uint256",
          "name": "tokenId",
          "type": "uint256"
        }
      ],
      "name": "Transfer",
      "type": "event"
    },
    {
      "inputs": [
        {
          "internalType": "address",
          "name": "to",
          "type": "address"
        },
        {
          "internalType": "uint256",
          "name": "tokenId",
          "type": "uint256"
        }
      ],
      "name": "approve",
      "outputs": [],
      "stateMutability": "nonpayable",
      "type": "function"
    },
    {
      "inputs": [
        {
          "internalType": "address",
          "name": "owner",
          "type": "address"
        }
      ],
      "name": "balanceOf",
      "outputs": [
        {
          "internalType": "uint256",
          "name": "",
          "type": "uint256"
        }
      ],
      "stateMutability": "view",
      "type": "function",
      "constant": true
    },
    {
      "inputs": [
        {
          "internalType": "uint256",
          "name": "tokenId",
          "type": "uint256"
        }
      ],
      "name": "getApproved",
      "outputs": [
        {
          "internalType": "address",
          "name": "",
          "type": "address"
        }
      ],
      "stateMutability": "view",
      "type": "function",
      "constant": true
    },
    {
      "inputs": [
        {
          "internalType": "address",
          "name": "owner",
          "type": "address"
        },
        {
          "internalType": "address",
          "name": "operator",
          "type": "address"
        }
      ],
      "name": "isApprovedForAll",
      "outputs": [
        {
          "internalType": "bool",
          "name": "",
          "type": "bool"
        }
      ],
      "stateMutability": "view",
      "type": "function",
      "constant": true
    },
    {
      "inputs": [],
      "name": "listingPrice",
      "outputs": [
        {
          "internalType": "uint256",
          "name": "",
          "type": "uint256"
        }
      ],
      "stateMutability": "view",
      "type": "function",
      "constant": true
    },
    {
      "inputs": [],
      "name": "name",
      "outputs": [
        {
          "internalType": "string",
          "name": "",
          "type": "string"
        }
      ],
      "stateMutability": "view",
      "type": "function",
      "constant": true
    },
    {
      "inputs": [],
      "name": "owner",
      "outputs": [
        {
          "internalType": "address",
          "name": "",
          "type": "address"
        }
      ],
      "stateMutability": "view",
      "type": "function",
      "constant": true
    },
    {
      "inputs": [
        {
          "internalType": "uint256",
          "name": "tokenId",
          "type": "uint256"
        }
      ],
      "name": "ownerOf",
      "outputs": [
        {
          "internalType": "address",
          "name": "",
          "type": "address"
        }
      ],
      "stateMutability": "view",
      "type": "function",
      "constant": true
    },
    {
      "inputs": [],
      "name": "renounceOwnership",
      "outputs": [],
      "stateMutability": "nonpayable",
      "type": "function"
    },
    {
      "inputs": [
        {
          "internalType": "address",
          "name": "from",
          "type": "address"
        },
        {
          "internalType": "address",
          "name": "to",
          "type": "address"
        },
        {
          "internalType": "uint256",
          "name": "tokenId",
          "type": "uint256"
        }
      ],
      "name": "safeTransferFrom",
      "outputs": [],
      "stateMutability": "nonpayable",
      "type": "function"
    },
    {
      "inputs": [
        {
          "internalType": "address",
          "name": "from",
          "type": "address"
        },
        {
          "internalType": "address",
          "name": "to",
          "type": "address"
        },
        {
          "internalType": "uint256",
          "name": "tokenId",
          "type": "uint256"
        },
        {
          "internalType": "bytes",
          "name": "data",
          "type": "bytes"
        }
      ],
      "name": "safeTransferFrom",
      "outputs": [],
      "stateMutability": "nonpayable",
      "type": "function"
    },
    {
      "inputs": [
        {
          "internalType": "address",
          "name": "operator",
          "type": "address"
        },
        {
          "internalType": "bool",
          "name": "approved",
          "type": "bool"
        }
      ],
      "name": "setApprovalForAll",
      "outputs": [],
      "stateMutability": "nonpayable",
      "type": "function"
    },
    {
      "inputs": [
        {
          "internalType": "bytes4",
          "name": "interfaceId",
          "type": "bytes4"
        }
      ],
      "name": "supportsInterface",
      "outputs": [
        {
          "internalType": "bool",
          "name": "",
          "type": "bool"
        }
      ],
      "stateMutability": "view",
      "type": "function",
      "constant": true
    },
    {
      "inputs": [],
      "name": "symbol",
      "outputs": [
        {
          "internalType": "string",
          "name": "",
          "type": "string"
        }
      ],
      "stateMutability": "view",
      "type": "function",
      "constant": true
    },
    {
      "inputs": [
        {
          "internalType": "uint256",
          "name": "tokenId",
          "type": "uint256"
        }
      ],
      "name": "tokenURI",
      "outputs": [
        {
          "internalType": "string",
          "name": "",
          "type": "string"
        }
      ],
      "stateMutability": "view",
      "type": "function",
      "constant": true
    },
    {
      "inputs": [
        {
          "internalType": "address",
          "name": "from",
          "type": "address"
        },
        {
          "internalType": "address",
          "name": "to",
          "type": "address"
        },
        {
          "internalType": "uint256",
          "name": "tokenId",
          "type": "uint256"
        }
      ],
      "name": "transferFrom",
      "outputs": [],
      "stateMutability": "nonpayable",
      "type": "function"
    },
    {
      "inputs": [
        {
          "internalType": "address",
          "name": "newOwner",
          "type": "address"
        }
      ],
      "name": "transferOwnership",
      "outputs": [],
      "stateMutability": "nonpayable",
      "type": "function"
    },
    {
      "inputs": [
        {
          "internalType": "uint256",
          "name": "newPrice",
          "type": "uint256"
        }
      ],
      "name": "setListingPrice",
      "outputs": [],
      "stateMutability": "nonpayable",
      "type": "function"
    },
    {
      "inputs": [
        {
          "internalType": "uint256",
          "name": "tokenId",
          "type": "uint256"
        }
      ],
      "name": "getNftItem",
      "outputs": [
        {
          "components": [
            {
              "internalType": "uint256",
              "name": "tokenId",
              "type": "uint256"
            },
            {
              "internalType": "uint256",
              "name": "price",
              "type": "uint256"
            },
            {
              "internalType": "address",
              "name": "creator",
              "type": "address"
            },
            {
              "internalType": "bool",
              "name": "isListed",
              "type": "bool"
            }
          ],
          "internalType": "struct NftMarket.NftItem",
          "name": "",
          "type": "tuple"
        }
      ],
      "stateMutability": "view",
      "type": "function",
      "constant": true
    },
    {
      "inputs": [],
      "name": "listedItemsCount",
      "outputs": [
        {
          "internalType": "uint256",
          "name": "",
          "type": "uint256"
        }
      ],
      "stateMutability": "view",
      "type": "function",
      "constant": true
    },
    {
      "inputs": [
        {
          "internalType": "string",
          "name": "tokenURI",
          "type": "string"
        }
      ],
      "name": "tokenURIexits",
      "outputs": [
        {
          "internalType": "bool",
          "name": "",
          "type": "bool"
        }
      ],
      "stateMutability": "view",
      "type": "function",
      "constant": true
    },
    {
      "inputs": [],
      "name": "totalSupply",
      "outputs": [
        {
          "internalType": "uint256",
          "name": "",
          "type": "uint256"
        }
      ],
      "stateMutability": "view",
      "type": "function",
      "constant": true
    },
    {
      "inputs": [
        {
          "internalType": "uint256",
          "name": "tokenIndex",
          "type": "uint256"
        }
      ],
      "name": "tokenByIndex",
      "outputs": [
        {
          "internalType": "uint256",
          "name": "",
          "type": "uint256"
        }
      ],
      "stateMutability": "view",
      "type": "function",
      "constant": true
    },
    {
      "inputs": [
        {
          "internalType": "address",
          "name": "owner",
          "type": "address"
        },
        {
          "internalType": "uint256",
          "name": "index",
          "type": "uint256"
        }
      ],
      "name": "tokenOfOwnerByIndex",
      "outputs": [
        {
          "internalType": "uint256",
          "name": "",
          "type": "uint256"
        }
      ],
      "stateMutability": "view",
      "type": "function",
      "constant": true
    },
    {
      "inputs": [],
      "name": "getAllNftsOnSale",
      "outputs": [
        {
          "components": [
            {
              "internalType": "uint256",
              "name": "tokenId",
              "type": "uint256"
            },
            {
              "internalType": "uint256",
              "name": "price",
              "type": "uint256"
            },
            {
              "internalType": "address",
              "name": "creator",
              "type": "address"
            },
            {
              "internalType": "bool",
              "name": "isListed",
              "type": "bool"
            }
          ],
          "internalType": "struct NftMarket.NftItem[]",
          "name": "",
          "type": "tuple[]"
        }
      ],
      "stateMutability": "view",
      "type": "function",
      "constant": true
    },
    {
      "inputs": [],
      "name": "getOwnedNfts",
      "outputs": [
        {
          "components": [
            {
              "internalType": "uint256",
              "name": "tokenId",
              "type": "uint256"
            },
            {
              "internalType": "uint256",
              "name": "price",
              "type": "uint256"
            },
            {
              "internalType": "address",
              "name": "creator",
              "type": "address"
            },
            {
              "internalType": "bool",
              "name": "isListed",
              "type": "bool"
            }
          ],
          "internalType": "struct NftMarket.NftItem[]",
          "name": "",
          "type": "tuple[]"
        }
      ],
      "stateMutability": "view",
      "type": "function",
      "constant": true
    },
    {
      "inputs": [
        {
          "internalType": "string",
          "name": "tokenURI",
          "type": "string"
        },
        {
          "internalType": "uint256",
          "name": "price",
          "type": "uint256"
        }
      ],
      "name": "mintToken",
      "outputs": [
        {
          "internalType": "uint256",
          "name": "",
          "type": "uint256"
        }
      ],
      "stateMutability": "payable",
      "type": "function",
      "payable": true
    },
    {
      "inputs": [
        {
          "internalType": "uint256",
          "name": "tokenId",
          "type": "uint256"
        }
      ],
      "name": "buyNft",
      "outputs": [],
      "stateMutability": "payable",
      "type": "function",
      "payable": true
    },
    {
      "inputs": [
        {
          "internalType": "uint256",
          "name": "tokenId",
          "type": "uint256"
        },
        {
          "internalType": "uint256",
          "name": "newPrice",
          "type": "uint256"
        }
      ],
      "name": "placeNftOnSale",
      "outputs": [],
      "stateMutability": "payable",
      "type": "function",
      "payable": true
    },
    {
      "inputs": [],
      "name": "totalNft",
      "outputs": [
        {
          "internalType": "uint256",
          "name": "",
          "type": "uint256"
        }
      ],
      "stateMutability": "view",
      "type": "function",
      "constant": true
    },
    {
      "inputs": [],
      "name": "getAllNftItem",
      "outputs": [
        {
          "components": [
            {
              "internalType": "uint256",
              "name": "tokenId",
              "type": "uint256"
            },
            {
              "internalType": "uint256",
              "name": "price",
              "type": "uint256"
            },
            {
              "internalType": "address",
              "name": "creator",
              "type": "address"
            },
            {
              "internalType": "bool",
              "name": "isListed",
              "type": "bool"
            }
          ],
          "internalType": "struct NftMarket.NftItem[]",
          "name": "",
          "type": "tuple[]"
        }
      ],
      "stateMutability": "view",
      "type": "function",
      "constant": true
    }
  ],
  "bytecode": "0x608060405266470de4df8200006008553480156200001c57600080fd5b506040518060400160405280600681526020017f5642494e465400000000000000000000000000000000000000000000000000008152506040518060400160405280600481526020017f5642494e0000000000000000000000000000000000000000000000000000000081525081600090816200009a91906200041d565b508060019081620000ac91906200041d565b505050620000cf620000c3620000d560201b60201c565b620000dd60201b60201c565b62000504565b600033905090565b6000600760009054906101000a900473ffffffffffffffffffffffffffffffffffffffff16905081600760006101000a81548173ffffffffffffffffffffffffffffffffffffffff021916908373ffffffffffffffffffffffffffffffffffffffff1602179055508173ffffffffffffffffffffffffffffffffffffffff168173ffffffffffffffffffffffffffffffffffffffff167f8be0079c531659141344cd1fd0a4f28419497f9722a3daafe3b4186f6b6457e060405160405180910390a35050565b600081519050919050565b7f4e487b7100000000000000000000000000000000000000000000000000000000600052604160045260246000fd5b7f4e487b7100000000000000000000000000000000000000000000000000000000600052602260045260246000fd5b600060028204905060018216806200022557607f821691505b6020821081036200023b576200023a620001dd565b5b50919050565b60008190508160005260206000209050919050565b60006020601f8301049050919050565b600082821b905092915050565b600060088302620002a57fffffffffffffffffffffffffffffffffffffffffffffffffffffffffffffffff8262000266565b620002b1868362000266565b95508019841693508086168417925050509392505050565b6000819050919050565b6000819050919050565b6000620002fe620002f8620002f284620002c9565b620002d3565b620002c9565b9050919050565b6000819050919050565b6200031a83620002dd565b62000332620003298262000305565b84845462000273565b825550505050565b600090565b620003496200033a565b620003568184846200030f565b505050565b5b818110156200037e57620003726000826200033f565b6001810190506200035c565b5050565b601f821115620003cd57620003978162000241565b620003a28462000256565b81016020851015620003b2578190505b620003ca620003c18562000256565b8301826200035b565b50505b505050565b600082821c905092915050565b6000620003f260001984600802620003d2565b1980831691505092915050565b60006200040d8383620003df565b9150826002028217905092915050565b6200042882620001a3565b67ffffffffffffffff811115620004445762000443620001ae565b5b6200045082546200020c565b6200045d82828562000382565b600060209050601f83116001811462000495576000841562000480578287015190505b6200048c8582620003ff565b865550620004fc565b601f198416620004a58662000241565b60005b82811015620004cf57848901518255600182019150602085019450602081019050620004a8565b86831015620004ef5784890151620004eb601f891682620003df565b8355505b6001600288020188555050505b505050505050565b6145b480620005146000396000f3fe6080604052600436106101d85760003560e01c806370a0823111610102578063b402ec7d11610095578063c87b56dd11610064578063c87b56dd146106bd578063ccb4918d146106fa578063e985e9c514610725578063f2fde38b14610762576101d8565b8063b402ec7d146105fc578063b88d4fde14610639578063c046372c14610662578063c78f19f914610692576101d8565b80638da5cb5b116100d15780638da5cb5b1461055257806395d89b411461057d5780639a290f1a146105a8578063a22cb465146105d3576101d8565b806370a08231146104aa57806370cbcb43146104e7578063715018a6146105125780637c726b6914610529576101d8565b8063243adbdd1161017a578063490c06c111610149578063490c06c1146103c85780634f6ccce7146103f35780636352211e146104305780636f1a0af51461046d576101d8565b8063243adbdd1461031b5780632f745c591461033757806336b536be1461037457806342842e0e1461039f576101d8565b8063095ea7b3116101b6578063095ea7b31461028257806318160ddd146102ab57806321f422e5146102d657806323b872dd146102f2576101d8565b806301ffc9a7146101dd57806306fdde031461021a578063081812fc14610245575b600080fd5b3480156101e957600080fd5b5061020460048036038101906101ff9190612b2f565b61078b565b6040516102119190612b77565b60405180910390f35b34801561022657600080fd5b5061022f61086d565b60405161023c9190612c22565b60405180910390f35b34801561025157600080fd5b5061026c60048036038101906102679190612c7a565b6108ff565b6040516102799190612ce8565b60405180910390f35b34801561028e57600080fd5b506102a960048036038101906102a49190612d2f565b610945565b005b3480156102b757600080fd5b506102c0610a5c565b6040516102cd9190612d7e565b60405180910390f35b6102f060048036038101906102eb9190612d99565b610a69565b005b3480156102fe57600080fd5b5061031960048036038101906103149190612dd9565b610be5565b005b61033560048036038101906103309190612c7a565b610c45565b005b34801561034357600080fd5b5061035e60048036038101906103599190612d2f565b610dad565b60405161036b9190612d7e565b60405180910390f35b34801561038057600080fd5b50610389610e52565b6040516103969190612f5d565b60405180910390f35b3480156103ab57600080fd5b506103c660048036038101906103c19190612dd9565b610fec565b005b3480156103d457600080fd5b506103dd61100c565b6040516103ea9190612d7e565b60405180910390f35b3480156103ff57600080fd5b5061041a60048036038101906104159190612c7a565b611019565b6040516104279190612d7e565b60405180910390f35b34801561043c57600080fd5b5061045760048036038101906104529190612c7a565b611041565b6040516104649190612ce8565b60405180910390f35b34801561047957600080fd5b50610494600480360381019061048f9190612c7a565b6110f2565b6040516104a19190612fd4565b60405180910390f35b3480156104b657600080fd5b506104d160048036038101906104cc9190612fef565b6111a4565b6040516104de9190612d7e565b60405180910390f35b3480156104f357600080fd5b506104fc61125b565b6040516105099190612f5d565b60405180910390f35b34801561051e57600080fd5b506105276113bf565b005b34801561053557600080fd5b50610550600480360381019061054b9190612c7a565b6113d3565b005b34801561055e57600080fd5b50610567611428565b6040516105749190612ce8565b60405180910390f35b34801561058957600080fd5b50610592611452565b60405161059f9190612c22565b60405180910390f35b3480156105b457600080fd5b506105bd6114e4565b6040516105ca9190612f5d565b60405180910390f35b3480156105df57600080fd5b506105fa60048036038101906105f59190613048565b611660565b005b34801561060857600080fd5b50610623600480360381019061061e91906131bd565b611676565b6040516106309190612b77565b60405180910390f35b34801561064557600080fd5b50610660600480360381019061065b91906132a7565b6116b2565b005b61067c6004803603810190610677919061332a565b611714565b6040516106899190612d7e565b60405180910390f35b34801561069e57600080fd5b506106a76117d6565b6040516106b49190612d7e565b60405180910390f35b3480156106c957600080fd5b506106e460048036038101906106df9190612c7a565b6117dc565b6040516106f19190612c22565b60405180910390f35b34801561070657600080fd5b5061070f6118ee565b60405161071c9190612d7e565b60405180910390f35b34801561073157600080fd5b5061074c60048036038101906107479190613386565b6118ff565b6040516107599190612b77565b60405180910390f35b34801561076e57600080fd5b5061078960048036038101906107849190612fef565b611993565b005b60007f80ac58cd000000000000000000000000000000000000000000000000000000007bffffffffffffffffffffffffffffffffffffffffffffffffffffffff1916827bffffffffffffffffffffffffffffffffffffffffffffffffffffffff1916148061085657507f5b5e139f000000000000000000000000000000000000000000000000000000007bffffffffffffffffffffffffffffffffffffffffffffffffffffffff1916827bffffffffffffffffffffffffffffffffffffffffffffffffffffffff1916145b80610866575061086582611a16565b5b9050919050565b60606000805461087c906133f5565b80601f01602080910402602001604051908101604052809291908181526020018280546108a8906133f5565b80156108f55780601f106108ca576101008083540402835291602001916108f5565b820191906000526020600020905b8154815290600101906020018083116108d857829003601f168201915b5050505050905090565b600061090a82611a80565b6004600083815260200190815260200160002060009054906101000a900473ffffffffffffffffffffffffffffffffffffffff169050919050565b600061095082611041565b90508073ffffffffffffffffffffffffffffffffffffffff168373ffffffffffffffffffffffffffffffffffffffff16036109c0576040517f08c379a00000000000000000000000000000000000000000000000000000000081526004016109b790613498565b60405180910390fd5b8073ffffffffffffffffffffffffffffffffffffffff166109df611acb565b73ffffffffffffffffffffffffffffffffffffffff161480610a0e5750610a0d81610a08611acb565b6118ff565b5b610a4d576040517f08c379a0000000000000000000000000000000000000000000000000000000008152600401610a449061352a565b60405180910390fd5b610a578383611ad3565b505050565b6000601380549050905090565b3373ffffffffffffffffffffffffffffffffffffffff16610a8983611041565b73ffffffffffffffffffffffffffffffffffffffff1614610adf576040517f08c379a0000000000000000000000000000000000000000000000000000000008152600401610ad690613596565b60405180910390fd5b60001515600c600084815260200190815260200160002060020160149054906101000a900460ff16151514610b49576040517f08c379a0000000000000000000000000000000000000000000000000000000008152600401610b4090613602565b60405180910390fd5b6008543414610b8d576040517f08c379a0000000000000000000000000000000000000000000000000000000008152600401610b8490613694565b60405180910390fd5b6001600c600084815260200190815260200160002060020160146101000a81548160ff02191690831515021790555080600c600084815260200190815260200160002060010181905550610be16009611b8c565b5050565b610bf6610bf0611acb565b82611ba2565b610c35576040517f08c379a0000000000000000000000000000000000000000000000000000000008152600401610c2c90613726565b60405180910390fd5b610c40838383611c37565b505050565b6000600c60008381526020019081526020016000206001015490506000610c6b83611041565b9050813414610caf576040517f08c379a0000000000000000000000000000000000000000000000000000000008152600401610ca690613792565b60405180910390fd5b3373ffffffffffffffffffffffffffffffffffffffff168173ffffffffffffffffffffffffffffffffffffffff1603610d1d576040517f08c379a0000000000000000000000000000000000000000000000000000000008152600401610d14906137fe565b60405180910390fd5b6000600c600085815260200190815260200160002060020160146101000a81548160ff021916908315150217905550610d566009611e9d565b610d61813385611c37565b8073ffffffffffffffffffffffffffffffffffffffff166108fc349081150290604051600060405180830381858888f19350505050158015610da7573d6000803e3d6000fd5b50505050565b6000610db8836111a4565b8210610df9576040517f08c379a0000000000000000000000000000000000000000000000000000000008152600401610df09061386a565b60405180910390fd5b600d60008473ffffffffffffffffffffffffffffffffffffffff1673ffffffffffffffffffffffffffffffffffffffff168152602001908152602001600020600083815260200190815260200160002054905092915050565b60606000610e5e610a5c565b9050600080610e6d6009611ef9565b67ffffffffffffffff811115610e8657610e85613092565b5b604051908082528060200260200182016040528015610ebf57816020015b610eac612a83565b815260200190600190039081610ea45790505b50905060005b83811015610fe2576000610ed882611019565b90506000600c60008381526020019081526020016000209050600115158160020160149054906101000a900460ff16151503610fcd578060405180608001604052908160008201548152602001600182015481526020016002820160009054906101000a900473ffffffffffffffffffffffffffffffffffffffff1673ffffffffffffffffffffffffffffffffffffffff1673ffffffffffffffffffffffffffffffffffffffff1681526020016002820160149054906101000a900460ff161515151581525050848681518110610fb257610fb161388a565b5b6020026020010181905250600185610fca91906138e8565b94505b50508080610fda9061391c565b915050610ec5565b5080935050505090565b611007838383604051806020016040528060008152506116b2565b505050565b6000601380549050905090565b60006013828154811061102f5761102e61388a565b5b90600052602060002001549050919050565b6000806002600084815260200190815260200160002060009054906101000a900473ffffffffffffffffffffffffffffffffffffffff169050600073ffffffffffffffffffffffffffffffffffffffff168173ffffffffffffffffffffffffffffffffffffffff16036110e9576040517f08c379a00000000000000000000000000000000000000000000000000000000081526004016110e0906139b0565b60405180910390fd5b80915050919050565b6110fa612a83565b600c600083815260200190815260200160002060405180608001604052908160008201548152602001600182015481526020016002820160009054906101000a900473ffffffffffffffffffffffffffffffffffffffff1673ffffffffffffffffffffffffffffffffffffffff1673ffffffffffffffffffffffffffffffffffffffff1681526020016002820160149054906101000a900460ff1615151515815250509050919050565b60008073ffffffffffffffffffffffffffffffffffffffff168273ffffffffffffffffffffffffffffffffffffffff1603611214576040517f08c379a000000000000000000000000000000000000000000000000000000000815260040161120b90613a42565b60405180910390fd5b600360008373ffffffffffffffffffffffffffffffffffffffff1673ffffffffffffffffffffffffffffffffffffffff168152602001908152602001600020549050919050565b60606000611268336111a4565b905060008167ffffffffffffffff81111561128657611285613092565b5b6040519080825280602002602001820160405280156112bf57816020015b6112ac612a83565b8152602001906001900390816112a45790505b50905060005b828110156113b65760006112d93383610dad565b90506000600c600083815260200190815260200160002090508060405180608001604052908160008201548152602001600182015481526020016002820160009054906101000a900473ffffffffffffffffffffffffffffffffffffffff1673ffffffffffffffffffffffffffffffffffffffff1673ffffffffffffffffffffffffffffffffffffffff1681526020016002820160149054906101000a900460ff1615151515815250508484815181106113965761139561388a565b5b6020026020010181905250505080806113ae9061391c565b9150506112c5565b50809250505090565b6113c7611f07565b6113d16000611f85565b565b6113db611f07565b6000811161141e576040517f08c379a000000000000000000000000000000000000000000000000000000000815260040161141590613aae565b60405180910390fd5b8060088190555050565b6000600760009054906101000a900473ffffffffffffffffffffffffffffffffffffffff16905090565b606060018054611461906133f5565b80601f016020809104026020016040519081016040528092919081815260200182805461148d906133f5565b80156114da5780601f106114af576101008083540402835291602001916114da565b820191906000526020600020905b8154815290600101906020018083116114bd57829003601f168201915b5050505050905090565b606060006114f061100c565b905060006114fe600a611ef9565b67ffffffffffffffff81111561151757611516613092565b5b60405190808252806020026020018201604052801561155057816020015b61153d612a83565b8152602001906001900390816115355790505b5090506000805b8381101561165657600061156a82611019565b90506000600c600083815260200190815260200160002090508060405180608001604052908160008201548152602001600182015481526020016002820160009054906101000a900473ffffffffffffffffffffffffffffffffffffffff1673ffffffffffffffffffffffffffffffffffffffff1673ffffffffffffffffffffffffffffffffffffffff1681526020016002820160149054906101000a900460ff1615151515815250508585815181106116275761162661388a565b5b602002602001018190525060018461163f91906138e8565b93505050808061164e9061391c565b915050611557565b5081935050505090565b61167261166b611acb565b838361204b565b5050565b60006001151560108360405161168c9190613b0a565b908152602001604051809103902060009054906101000a900460ff161515149050919050565b6116c36116bd611acb565b83611ba2565b611702576040517f08c379a00000000000000000000000000000000000000000000000000000000081526004016116f990613726565b60405180910390fd5b61170e848484846121b7565b50505050565b600061171f83611676565b1561175f576040517f08c379a000000000000000000000000000000000000000000000000000000000815260040161175690613b6d565b60405180910390fd5b611769600a611b8c565b6000611775600a611ef9565b90506117813382612213565b61178b8185612231565b611795818461229e565b60016010856040516117a79190613b0a565b908152602001604051809103902060006101000a81548160ff0219169083151502179055508091505092915050565b60085481565b60606117e782611a80565b6000600660008481526020019081526020016000208054611807906133f5565b80601f0160208091040260200160405190810160405280929190818152602001828054611833906133f5565b80156118805780601f1061185557610100808354040283529160200191611880565b820191906000526020600020905b81548152906001019060200180831161186357829003601f168201915b5050505050905060006118916123ee565b905060008151036118a65781925050506118e9565b6000825111156118db5780826040516020016118c3929190613b8d565b604051602081830303815290604052925050506118e9565b6118e484612405565b925050505b919050565b60006118fa6009611ef9565b905090565b6000600560008473ffffffffffffffffffffffffffffffffffffffff1673ffffffffffffffffffffffffffffffffffffffff16815260200190815260200160002060008373ffffffffffffffffffffffffffffffffffffffff1673ffffffffffffffffffffffffffffffffffffffff16815260200190815260200160002060009054906101000a900460ff16905092915050565b61199b611f07565b600073ffffffffffffffffffffffffffffffffffffffff168173ffffffffffffffffffffffffffffffffffffffff1603611a0a576040517f08c379a0000000000000000000000000000000000000000000000000000000008152600401611a0190613c23565b60405180910390fd5b611a1381611f85565b50565b60007f01ffc9a7000000000000000000000000000000000000000000000000000000007bffffffffffffffffffffffffffffffffffffffffffffffffffffffff1916827bffffffffffffffffffffffffffffffffffffffffffffffffffffffff1916149050919050565b611a898161246d565b611ac8576040517f08c379a0000000000000000000000000000000000000000000000000000000008152600401611abf906139b0565b60405180910390fd5b50565b600033905090565b816004600083815260200190815260200160002060006101000a81548173ffffffffffffffffffffffffffffffffffffffff021916908373ffffffffffffffffffffffffffffffffffffffff160217905550808273ffffffffffffffffffffffffffffffffffffffff16611b4683611041565b73ffffffffffffffffffffffffffffffffffffffff167f8c5be1e5ebec7d5bd14f71427d1e84f3dd0314c0f7b2291e5b200ac8c7c3b92560405160405180910390a45050565b6001816000016000828254019250508190555050565b600080611bae83611041565b90508073ffffffffffffffffffffffffffffffffffffffff168473ffffffffffffffffffffffffffffffffffffffff161480611bf05750611bef81856118ff565b5b80611c2e57508373ffffffffffffffffffffffffffffffffffffffff16611c16846108ff565b73ffffffffffffffffffffffffffffffffffffffff16145b91505092915050565b8273ffffffffffffffffffffffffffffffffffffffff16611c5782611041565b73ffffffffffffffffffffffffffffffffffffffff1614611cad576040517f08c379a0000000000000000000000000000000000000000000000000000000008152600401611ca490613cb5565b60405180910390fd5b600073ffffffffffffffffffffffffffffffffffffffff168273ffffffffffffffffffffffffffffffffffffffff1603611d1c576040517f08c379a0000000000000000000000000000000000000000000000000000000008152600401611d1390613d47565b60405180910390fd5b611d278383836124d9565b611d32600082611ad3565b6001600360008573ffffffffffffffffffffffffffffffffffffffff1673ffffffffffffffffffffffffffffffffffffffff1681526020019081526020016000206000828254611d829190613d67565b925050819055506001600360008473ffffffffffffffffffffffffffffffffffffffff1673ffffffffffffffffffffffffffffffffffffffff1681526020019081526020016000206000828254611dd991906138e8565b92505081905550816002600083815260200190815260200160002060006101000a81548173ffffffffffffffffffffffffffffffffffffffff021916908373ffffffffffffffffffffffffffffffffffffffff160217905550808273ffffffffffffffffffffffffffffffffffffffff168473ffffffffffffffffffffffffffffffffffffffff167fddf252ad1be2c89b69c2b068fc378daa952ba7f163c4a11628f55a4df523b3ef60405160405180910390a4611e988383836124f2565b505050565b60008160000154905060008111611ee9576040517f08c379a0000000000000000000000000000000000000000000000000000000008152600401611ee090613de7565b60405180910390fd5b6001810382600001819055505050565b600081600001549050919050565b611f0f611acb565b73ffffffffffffffffffffffffffffffffffffffff16611f2d611428565b73ffffffffffffffffffffffffffffffffffffffff1614611f83576040517f08c379a0000000000000000000000000000000000000000000000000000000008152600401611f7a90613e53565b60405180910390fd5b565b6000600760009054906101000a900473ffffffffffffffffffffffffffffffffffffffff16905081600760006101000a81548173ffffffffffffffffffffffffffffffffffffffff021916908373ffffffffffffffffffffffffffffffffffffffff1602179055508173ffffffffffffffffffffffffffffffffffffffff168173ffffffffffffffffffffffffffffffffffffffff167f8be0079c531659141344cd1fd0a4f28419497f9722a3daafe3b4186f6b6457e060405160405180910390a35050565b8173ffffffffffffffffffffffffffffffffffffffff168373ffffffffffffffffffffffffffffffffffffffff16036120b9576040517f08c379a00000000000000000000000000000000000000000000000000000000081526004016120b090613ebf565b60405180910390fd5b80600560008573ffffffffffffffffffffffffffffffffffffffff1673ffffffffffffffffffffffffffffffffffffffff16815260200190815260200160002060008473ffffffffffffffffffffffffffffffffffffffff1673ffffffffffffffffffffffffffffffffffffffff16815260200190815260200160002060006101000a81548160ff0219169083151502179055508173ffffffffffffffffffffffffffffffffffffffff168373ffffffffffffffffffffffffffffffffffffffff167f17307eab39ab6107e8899845ad3d59bd9653f200f220920489ca2b5937696c31836040516121aa9190612b77565b60405180910390a3505050565b6121c2848484611c37565b6121ce848484846124f7565b61220d576040517f08c379a000000000000000000000000000000000000000000000000000000000815260040161220490613f51565b60405180910390fd5b50505050565b61222d82826040518060200160405280600081525061267e565b5050565b61223a8261246d565b612279576040517f08c379a000000000000000000000000000000000000000000000000000000000815260040161227090613fe3565b60405180910390fd5b8060066000848152602001908152602001600020908161229991906141af565b505050565b600081116122e1576040517f08c379a00000000000000000000000000000000000000000000000000000000081526004016122d8906142cd565b60405180910390fd5b60405180608001604052808381526020018281526020013373ffffffffffffffffffffffffffffffffffffffff16815260200160011515815250600c6000848152602001908152602001600020600082015181600001556020820151816001015560408201518160020160006101000a81548173ffffffffffffffffffffffffffffffffffffffff021916908373ffffffffffffffffffffffffffffffffffffffff16021790555060608201518160020160146101000a81548160ff0219169083151502179055509050507f470031062672bc0246e132c723a729c4676710ec663a29e86c88678032daddea82823360016040516123e294939291906142ed565b60405180910390a15050565b606060405180602001604052806000815250905090565b606061241082611a80565b600061241a6123ee565b9050600081511161243a5760405180602001604052806000815250612465565b80612444846126d9565b604051602001612455929190613b8d565b6040516020818303038152906040525b915050919050565b60008073ffffffffffffffffffffffffffffffffffffffff166002600084815260200190815260200160002060009054906101000a900473ffffffffffffffffffffffffffffffffffffffff1673ffffffffffffffffffffffffffffffffffffffff1614159050919050565b6124e4838383612839565b6124ed8161283e565b505050565b505050565b60006125188473ffffffffffffffffffffffffffffffffffffffff16612887565b15612671578373ffffffffffffffffffffffffffffffffffffffff1663150b7a02612541611acb565b8786866040518563ffffffff1660e01b81526004016125639493929190614387565b6020604051808303816000875af192505050801561259f57506040513d601f19601f8201168201806040525081019061259c91906143e8565b60015b612621573d80600081146125cf576040519150601f19603f3d011682016040523d82523d6000602084013e6125d4565b606091505b506000815103612619576040517f08c379a000000000000000000000000000000000000000000000000000000000815260040161261090613f51565b60405180910390fd5b805181602001fd5b63150b7a0260e01b7bffffffffffffffffffffffffffffffffffffffffffffffffffffffff1916817bffffffffffffffffffffffffffffffffffffffffffffffffffffffff191614915050612676565b600190505b949350505050565b61268883836128aa565b61269560008484846124f7565b6126d4576040517f08c379a00000000000000000000000000000000000000000000000000000000081526004016126cb90613f51565b60405180910390fd5b505050565b606060008203612720576040518060400160405280600181526020017f30000000000000000000000000000000000000000000000000000000000000008152509050612834565b600082905060005b6000821461275257808061273b9061391c565b915050600a8261274b9190614444565b9150612728565b60008167ffffffffffffffff81111561276e5761276d613092565b5b6040519080825280601f01601f1916602001820160405280156127a05781602001600182028036833780820191505090505b5090505b6000851461282d576001826127b99190613d67565b9150600a856127c89190614475565b60306127d491906138e8565b60f81b8183815181106127ea576127e961388a565b5b60200101907effffffffffffffffffffffffffffffffffffffffffffffffffffffffffffff1916908160001a905350600a856128269190614444565b94506127a4565b8093505050505b919050565b505050565b6013805490506011600083815260200190815260200160002081905550601381908060018154018082558091505060019003906000526020600020016000909190919091505550565b6000808273ffffffffffffffffffffffffffffffffffffffff163b119050919050565b600073ffffffffffffffffffffffffffffffffffffffff168273ffffffffffffffffffffffffffffffffffffffff1603612919576040517f08c379a0000000000000000000000000000000000000000000000000000000008152600401612910906144f2565b60405180910390fd5b6129228161246d565b15612962576040517f08c379a00000000000000000000000000000000000000000000000000000000081526004016129599061455e565b60405180910390fd5b61296e600083836124d9565b6001600360008473ffffffffffffffffffffffffffffffffffffffff1673ffffffffffffffffffffffffffffffffffffffff16815260200190815260200160002060008282546129be91906138e8565b92505081905550816002600083815260200190815260200160002060006101000a81548173ffffffffffffffffffffffffffffffffffffffff021916908373ffffffffffffffffffffffffffffffffffffffff160217905550808273ffffffffffffffffffffffffffffffffffffffff16600073ffffffffffffffffffffffffffffffffffffffff167fddf252ad1be2c89b69c2b068fc378daa952ba7f163c4a11628f55a4df523b3ef60405160405180910390a4612a7f600083836124f2565b5050565b60405180608001604052806000815260200160008152602001600073ffffffffffffffffffffffffffffffffffffffff1681526020016000151581525090565b6000604051905090565b600080fd5b600080fd5b60007fffffffff0000000000000000000000000000000000000000000000000000000082169050919050565b612b0c81612ad7565b8114612b1757600080fd5b50565b600081359050612b2981612b03565b92915050565b600060208284031215612b4557612b44612acd565b5b6000612b5384828501612b1a565b91505092915050565b60008115159050919050565b612b7181612b5c565b82525050565b6000602082019050612b8c6000830184612b68565b92915050565b600081519050919050565b600082825260208201905092915050565b60005b83811015612bcc578082015181840152602081019050612bb1565b60008484015250505050565b6000601f19601f8301169050919050565b6000612bf482612b92565b612bfe8185612b9d565b9350612c0e818560208601612bae565b612c1781612bd8565b840191505092915050565b60006020820190508181036000830152612c3c8184612be9565b905092915050565b6000819050919050565b612c5781612c44565b8114612c6257600080fd5b50565b600081359050612c7481612c4e565b92915050565b600060208284031215612c9057612c8f612acd565b5b6000612c9e84828501612c65565b91505092915050565b600073ffffffffffffffffffffffffffffffffffffffff82169050919050565b6000612cd282612ca7565b9050919050565b612ce281612cc7565b82525050565b6000602082019050612cfd6000830184612cd9565b92915050565b612d0c81612cc7565b8114612d1757600080fd5b50565b600081359050612d2981612d03565b92915050565b60008060408385031215612d4657612d45612acd565b5b6000612d5485828601612d1a565b9250506020612d6585828601612c65565b9150509250929050565b612d7881612c44565b82525050565b6000602082019050612d936000830184612d6f565b92915050565b60008060408385031215612db057612daf612acd565b5b6000612dbe85828601612c65565b9250506020612dcf85828601612c65565b9150509250929050565b600080600060608486031215612df257612df1612acd565b5b6000612e0086828701612d1a565b9350506020612e1186828701612d1a565b9250506040612e2286828701612c65565b9150509250925092565b600081519050919050565b600082825260208201905092915050565b6000819050602082019050919050565b612e6181612c44565b82525050565b612e7081612cc7565b82525050565b612e7f81612b5c565b82525050565b608082016000820151612e9b6000850182612e58565b506020820151612eae6020850182612e58565b506040820151612ec16040850182612e67565b506060820151612ed46060850182612e76565b50505050565b6000612ee68383612e85565b60808301905092915050565b6000602082019050919050565b6000612f0a82612e2c565b612f148185612e37565b9350612f1f83612e48565b8060005b83811015612f50578151612f378882612eda565b9750612f4283612ef2565b925050600181019050612f23565b5085935050505092915050565b60006020820190508181036000830152612f778184612eff565b905092915050565b608082016000820151612f956000850182612e58565b506020820151612fa86020850182612e58565b506040820151612fbb6040850182612e67565b506060820151612fce6060850182612e76565b50505050565b6000608082019050612fe96000830184612f7f565b92915050565b60006020828403121561300557613004612acd565b5b600061301384828501612d1a565b91505092915050565b61302581612b5c565b811461303057600080fd5b50565b6000813590506130428161301c565b92915050565b6000806040838503121561305f5761305e612acd565b5b600061306d85828601612d1a565b925050602061307e85828601613033565b9150509250929050565b600080fd5b600080fd5b7f4e487b7100000000000000000000000000000000000000000000000000000000600052604160045260246000fd5b6130ca82612bd8565b810181811067ffffffffffffffff821117156130e9576130e8613092565b5b80604052505050565b60006130fc612ac3565b905061310882826130c1565b919050565b600067ffffffffffffffff82111561312857613127613092565b5b61313182612bd8565b9050602081019050919050565b82818337600083830152505050565b600061316061315b8461310d565b6130f2565b90508281526020810184848401111561317c5761317b61308d565b5b61318784828561313e565b509392505050565b600082601f8301126131a4576131a3613088565b5b81356131b484826020860161314d565b91505092915050565b6000602082840312156131d3576131d2612acd565b5b600082013567ffffffffffffffff8111156131f1576131f0612ad2565b5b6131fd8482850161318f565b91505092915050565b600067ffffffffffffffff82111561322157613220613092565b5b61322a82612bd8565b9050602081019050919050565b600061324a61324584613206565b6130f2565b9050828152602081018484840111156132665761326561308d565b5b61327184828561313e565b509392505050565b600082601f83011261328e5761328d613088565b5b813561329e848260208601613237565b91505092915050565b600080600080608085870312156132c1576132c0612acd565b5b60006132cf87828801612d1a565b94505060206132e087828801612d1a565b93505060406132f187828801612c65565b925050606085013567ffffffffffffffff81111561331257613311612ad2565b5b61331e87828801613279565b91505092959194509250565b6000806040838503121561334157613340612acd565b5b600083013567ffffffffffffffff81111561335f5761335e612ad2565b5b61336b8582860161318f565b925050602061337c85828601612c65565b9150509250929050565b6000806040838503121561339d5761339c612acd565b5b60006133ab85828601612d1a565b92505060206133bc85828601612d1a565b9150509250929050565b7f4e487b7100000000000000000000000000000000000000000000000000000000600052602260045260246000fd5b6000600282049050600182168061340d57607f821691505b6020821081036134205761341f6133c6565b5b50919050565b7f4552433732313a20617070726f76616c20746f2063757272656e74206f776e6560008201527f7200000000000000000000000000000000000000000000000000000000000000602082015250565b6000613482602183612b9d565b915061348d82613426565b604082019050919050565b600060208201905081810360008301526134b181613475565b9050919050565b7f4552433732313a20617070726f76652063616c6c6572206973206e6f7420746f60008201527f6b656e206f776e6572206e6f7220617070726f76656420666f7220616c6c0000602082015250565b6000613514603e83612b9d565b915061351f826134b8565b604082019050919050565b6000602082019050818103600083015261354381613507565b9050919050565b7f596f7520617265206e6f74206f776e6572206f662074686973206e6674000000600082015250565b6000613580601d83612b9d565b915061358b8261354a565b602082019050919050565b600060208201905081810360008301526135af81613573565b9050919050565b7f4974656d20697320616c7265616479206f6e2073616c65000000000000000000600082015250565b60006135ec601783612b9d565b91506135f7826135b6565b602082019050919050565b6000602082019050818103600083015261361b816135df565b9050919050565b7f5072696365206d75737420626520657175616c20746f206c697374696e67207060008201527f7269636500000000000000000000000000000000000000000000000000000000602082015250565b600061367e602483612b9d565b915061368982613622565b604082019050919050565b600060208201905081810360008301526136ad81613671565b9050919050565b7f4552433732313a2063616c6c6572206973206e6f7420746f6b656e206f776e6560008201527f72206e6f7220617070726f766564000000000000000000000000000000000000602082015250565b6000613710602e83612b9d565b915061371b826136b4565b604082019050919050565b6000602082019050818103600083015261373f81613703565b9050919050565b7f506c65617365207375626d6974207468652061736b696e672070726963650000600082015250565b600061377c601e83612b9d565b915061378782613746565b602082019050919050565b600060208201905081810360008301526137ab8161376f565b9050919050565b7f4f776e6572206d757374206e6f742062652053656e6465720000000000000000600082015250565b60006137e8601883612b9d565b91506137f3826137b2565b602082019050919050565b60006020820190508181036000830152613817816137db565b9050919050565b7f496e646578206f7574206f6620626f756e647300000000000000000000000000600082015250565b6000613854601383612b9d565b915061385f8261381e565b602082019050919050565b6000602082019050818103600083015261388381613847565b9050919050565b7f4e487b7100000000000000000000000000000000000000000000000000000000600052603260045260246000fd5b7f4e487b7100000000000000000000000000000000000000000000000000000000600052601160045260246000fd5b60006138f382612c44565b91506138fe83612c44565b9250828201905080821115613916576139156138b9565b5b92915050565b600061392782612c44565b91507fffffffffffffffffffffffffffffffffffffffffffffffffffffffffffffffff8203613959576139586138b9565b5b600182019050919050565b7f4552433732313a20696e76616c696420746f6b656e2049440000000000000000600082015250565b600061399a601883612b9d565b91506139a582613964565b602082019050919050565b600060208201905081810360008301526139c98161398d565b9050919050565b7f4552433732313a2061646472657373207a65726f206973206e6f74206120766160008201527f6c6964206f776e65720000000000000000000000000000000000000000000000602082015250565b6000613a2c602983612b9d565b9150613a37826139d0565b604082019050919050565b60006020820190508181036000830152613a5b81613a1f565b9050919050565b7f5072696365206d757374206265206174206c6561737420312077656900000000600082015250565b6000613a98601c83612b9d565b9150613aa382613a62565b602082019050919050565b60006020820190508181036000830152613ac781613a8b565b9050919050565b600081905092915050565b6000613ae482612b92565b613aee8185613ace565b9350613afe818560208601612bae565b80840191505092915050565b6000613b168284613ad9565b915081905092915050565b7f546f6b656e205552492069732065786974730000000000000000000000000000600082015250565b6000613b57601283612b9d565b9150613b6282613b21565b602082019050919050565b60006020820190508181036000830152613b8681613b4a565b9050919050565b6000613b998285613ad9565b9150613ba58284613ad9565b91508190509392505050565b7f4f776e61626c653a206e6577206f776e657220697320746865207a65726f206160008201527f6464726573730000000000000000000000000000000000000000000000000000602082015250565b6000613c0d602683612b9d565b9150613c1882613bb1565b604082019050919050565b60006020820190508181036000830152613c3c81613c00565b9050919050565b7f4552433732313a207472616e736665722066726f6d20696e636f72726563742060008201527f6f776e6572000000000000000000000000000000000000000000000000000000602082015250565b6000613c9f602583612b9d565b9150613caa82613c43565b604082019050919050565b60006020820190508181036000830152613cce81613c92565b9050919050565b7f4552433732313a207472616e7366657220746f20746865207a65726f2061646460008201527f7265737300000000000000000000000000000000000000000000000000000000602082015250565b6000613d31602483612b9d565b9150613d3c82613cd5565b604082019050919050565b60006020820190508181036000830152613d6081613d24565b9050919050565b6000613d7282612c44565b9150613d7d83612c44565b9250828203905081811115613d9557613d946138b9565b5b92915050565b7f436f756e7465723a2064656372656d656e74206f766572666c6f770000000000600082015250565b6000613dd1601b83612b9d565b9150613ddc82613d9b565b602082019050919050565b60006020820190508181036000830152613e0081613dc4565b9050919050565b7f4f776e61626c653a2063616c6c6572206973206e6f7420746865206f776e6572600082015250565b6000613e3d602083612b9d565b9150613e4882613e07565b602082019050919050565b60006020820190508181036000830152613e6c81613e30565b9050919050565b7f4552433732313a20617070726f766520746f2063616c6c657200000000000000600082015250565b6000613ea9601983612b9d565b9150613eb482613e73565b602082019050919050565b60006020820190508181036000830152613ed881613e9c565b9050919050565b7f4552433732313a207472616e7366657220746f206e6f6e20455243373231526560008201527f63656976657220696d706c656d656e7465720000000000000000000000000000602082015250565b6000613f3b603283612b9d565b9150613f4682613edf565b604082019050919050565b60006020820190508181036000830152613f6a81613f2e565b9050919050565b7f45524337323155524953746f726167653a2055524920736574206f66206e6f6e60008201527f6578697374656e7420746f6b656e000000000000000000000000000000000000602082015250565b6000613fcd602e83612b9d565b9150613fd882613f71565b604082019050919050565b60006020820190508181036000830152613ffc81613fc0565b9050919050565b60008190508160005260206000209050919050565b60006020601f8301049050919050565b600082821b905092915050565b6000600883026140657fffffffffffffffffffffffffffffffffffffffffffffffffffffffffffffffff82614028565b61406f8683614028565b95508019841693508086168417925050509392505050565b6000819050919050565b60006140ac6140a76140a284612c44565b614087565b612c44565b9050919050565b6000819050919050565b6140c683614091565b6140da6140d2826140b3565b848454614035565b825550505050565b600090565b6140ef6140e2565b6140fa8184846140bd565b505050565b5b8181101561411e576141136000826140e7565b600181019050614100565b5050565b601f8211156141635761413481614003565b61413d84614018565b8101602085101561414c578190505b61416061415885614018565b8301826140ff565b50505b505050565b600082821c905092915050565b600061418660001984600802614168565b1980831691505092915050565b600061419f8383614175565b9150826002028217905092915050565b6141b882612b92565b67ffffffffffffffff8111156141d1576141d0613092565b5b6141db82546133f5565b6141e6828285614122565b600060209050601f8311600181146142195760008415614207578287015190505b6142118582614193565b865550614279565b601f19841661422786614003565b60005b8281101561424f5784890151825560018201915060208501945060208101905061422a565b8683101561426c5784890151614268601f891682614175565b8355505b6001600288020188555050505b505050505050565b7f5072696365206d757374206174206c6561737420312077656900000000000000600082015250565b60006142b7601983612b9d565b91506142c282614281565b602082019050919050565b600060208201905081810360008301526142e6816142aa565b9050919050565b60006080820190506143026000830187612d6f565b61430f6020830186612d6f565b61431c6040830185612cd9565b6143296060830184612b68565b95945050505050565b600081519050919050565b600082825260208201905092915050565b600061435982614332565b614363818561433d565b9350614373818560208601612bae565b61437c81612bd8565b840191505092915050565b600060808201905061439c6000830187612cd9565b6143a96020830186612cd9565b6143b66040830185612d6f565b81810360608301526143c8818461434e565b905095945050505050565b6000815190506143e281612b03565b92915050565b6000602082840312156143fe576143fd612acd565b5b600061440c848285016143d3565b91505092915050565b7f4e487b7100000000000000000000000000000000000000000000000000000000600052601260045260246000fd5b600061444f82612c44565b915061445a83612c44565b92508261446a57614469614415565b5b828204905092915050565b600061448082612c44565b915061448b83612c44565b92508261449b5761449a614415565b5b828206905092915050565b7f4552433732313a206d696e7420746f20746865207a65726f2061646472657373600082015250565b60006144dc602083612b9d565b91506144e7826144a6565b602082019050919050565b6000602082019050818103600083015261450b816144cf565b9050919050565b7f4552433732313a20746f6b656e20616c7265616479206d696e74656400000000600082015250565b6000614548601c83612b9d565b915061455382614512565b602082019050919050565b600060208201905081810360008301526145778161453b565b905091905056fea264697066735822122004c1fda2e5e7ae82d46d5c19596b0aedd5dccccb23c09852aabf54d77b53a00764736f6c63430008110033",
  "immutableReferences": {},
  "source": "// SPDX-License-Identifier: GPL-3.0\r\npragma solidity ^0.8.0;\r\nimport \"@openzeppelin/contracts/token/ERC721/extensions/ERC721URIStorage.sol\";\r\nimport \"@openzeppelin/contracts/utils/Counters.sol\";\r\nimport \"@openzeppelin/contracts/access/Ownable.sol\";\r\n\r\ncontract NftMarket is ERC721URIStorage, Ownable{\r\n    struct NftItem {\r\n        uint tokenId;\r\n        uint price;\r\n        address creator;\r\n        bool isListed;\r\n    }\r\n\r\n    uint public listingPrice = 0.02 ether;\r\n\r\n    Counters.Counter private _listedItems;\r\n    Counters.Counter private _tokenIds;\r\n\r\n    mapping(string => bool) private _usedTokenURIs;\r\n    mapping(uint => NftItem) private _idToNftItem;\r\n    mapping(address => mapping(uint => uint)) private _ownedTokens;\r\n    mapping(uint => uint) private _idToOwnedIndex;\r\n    mapping(uint => uint) private _idToNftIndex;\r\n    \r\n    mapping (string => bool) private _usedTokenURI;\r\n    mapping (uint => uint) private _idToIndex;\r\n    mapping(address => mapping(uint => uint)) private _ownerNftItem;\r\n\r\n    event NftItemCreated (\r\n        uint tokenId,\r\n        uint price,\r\n        address creator,\r\n        bool isListed\r\n    );\r\n\r\n    uint[] private _allNfts;\r\n    uint[] private _ownerNfts;\r\n\r\n\r\n    using Counters for Counters.Counter;\r\n\r\n    constructor() ERC721(\"VBINFT\",\"VBIN\")   {}\r\n\r\n    function setListingPrice(uint newPrice) external onlyOwner{\r\n        require(newPrice>0, \"Price must be at least 1 wei\");\r\n        listingPrice = newPrice;\r\n    }\r\n\r\n    function getNftItem(uint tokenId) public view returns (NftItem memory){\r\n        return _idToNftItem[tokenId];\r\n    }\r\n\r\n    function listedItemsCount() public view returns (uint) {\r\n        return _listedItems.current();\r\n    }\r\n\r\n    function tokenURIexits(string memory tokenURI) public view returns(bool){\r\n        return _usedTokenURI[tokenURI] == true;\r\n    }\r\n\r\n    function totalSupply() public view returns (uint) {\r\n        return _allNfts.length;\r\n    }\r\n\r\n    function tokenByIndex(uint tokenIndex) public view returns(uint){\r\n        return _allNfts[tokenIndex];\r\n    }\r\n\r\n    function tokenOfOwnerByIndex(address owner, uint index) public view returns (uint){\r\n        require(index < ERC721.balanceOf(owner),\"Index out of bounds\");\r\n        return _ownedTokens[owner][index];\r\n    }\r\n\r\n    function getAllNftsOnSale() public view returns (NftItem[] memory){\r\n        uint allItemsCounts = totalSupply();\r\n        uint currentIndex = 0;\r\n        NftItem[] memory items = new NftItem[](_listedItems.current());\r\n\r\n        for (uint i = 0; i< allItemsCounts; i++){\r\n            uint tokenId = tokenByIndex(i);\r\n            NftItem storage item = _idToNftItem[tokenId];\r\n\r\n            if (item.isListed == true){\r\n                items[currentIndex] = item;\r\n                currentIndex += 1;\r\n            }\r\n        }\r\n        return items;\r\n    }\r\n\r\n    function getOwnedNfts() public view returns (NftItem[] memory){\r\n        uint ownedItemsCount = ERC721.balanceOf(msg.sender);\r\n        NftItem[] memory items = new NftItem[](ownedItemsCount);\r\n        for(uint i=0; i< ownedItemsCount; i++){\r\n            uint tokenId = tokenOfOwnerByIndex(msg.sender, i);\r\n            NftItem storage item = _idToNftItem[tokenId];\r\n            items[i] = item;\r\n        }\r\n        return items;\r\n    }\r\n\r\n    function createNftItem(uint tokenId, uint price) private{\r\n        require(price>0,\"Price must at least 1 wei\");\r\n        _idToNftItem[tokenId] = NftItem(tokenId,price,msg.sender,true);\r\n        emit NftItemCreated(tokenId, price, msg.sender,true);\r\n    }\r\n\r\n\r\n\r\n    function mintToken(string memory tokenURI, uint price) public payable returns(uint256){\r\n        require(!tokenURIexits(tokenURI),\"Token URI is exits\");\r\n        _tokenIds.increment();\r\n\r\n        uint256 newItemId = _tokenIds.current();\r\n        _safeMint(msg.sender, newItemId);\r\n        _setTokenURI(newItemId,tokenURI);\r\n        createNftItem(newItemId, price);\r\n        _usedTokenURI[tokenURI] = true;\r\n\r\n        return newItemId;\r\n    }\r\n\r\n    function buyNft(uint tokenId) public payable {\r\n        uint price = _idToNftItem[tokenId].price;\r\n        address owner = ERC721.ownerOf(tokenId);\r\n\r\n        require(msg.value == price,\"Please submit the asking price\");\r\n        require(owner != msg.sender,\"Owner must not be Sender\");\r\n        \r\n        _idToNftItem[tokenId].isListed = false;\r\n        _listedItems.decrement();\r\n\r\n        _transfer(owner, msg.sender, tokenId);\r\n        payable(owner).transfer(msg.value);\r\n    }\r\n\r\n    function placeNftOnSale(uint tokenId, uint newPrice) public payable {\r\n        require(ERC721.ownerOf(tokenId) == msg.sender,\"You are not owner of this nft\");\r\n        require(_idToNftItem[tokenId].isListed == false,\"Item is already on sale\");\r\n        require(msg.value == listingPrice,\"Price must be equal to listing price\");\r\n    \r\n        _idToNftItem[tokenId].isListed = true;\r\n        _idToNftItem[tokenId].price = newPrice;\r\n        _listedItems.increment();\r\n    }\r\n\r\n    function _beforeTokenTransfer(address from,address to,uint tokenId) internal virtual override {\r\n        super._beforeTokenTransfer(from,to,tokenId);\r\n        addNftItemToArray(tokenId);\r\n    }\r\n    function addNftItemToArray(uint tokenId) private {\r\n        _idToIndex[tokenId] = _allNfts.length;\r\n        _allNfts.push(tokenId);\r\n    }\r\n \r\n    function totalNft() public view returns(uint){\r\n        return _allNfts.length;\r\n    }\r\n    function getAllNftItem() public view returns(NftItem[] memory){\r\n        uint AllItem = totalNft();\r\n        NftItem[] memory items = new NftItem[](_tokenIds.current());\r\n        uint currentIndex = 0;\r\n        for(uint i = 0; i< AllItem;i++){\r\n            uint tokenId = tokenByIndex(i);\r\n            NftItem storage item = _idToNftItem[tokenId];\r\n            items[currentIndex] = item;\r\n            currentIndex += 1;\r\n        }\r\n        return items;\r\n    }\r\n    function _removeTokenFromOwner(address from,uint tokenId) private{\r\n        uint lastTokenIndex = ERC721.balanceOf(from) - 1;\r\n        uint tokenIndex = _idToOwnedIndex[tokenId];\r\n\r\n        if (tokenIndex != lastTokenIndex){\r\n            uint lastTokenId = _ownedTokens[from][lastTokenIndex];\r\n\r\n            _ownedTokens[from][tokenIndex] = lastTokenId;\r\n            _idToOwnedIndex[lastTokenId] = tokenIndex;\r\n        }\r\n\r\n        delete _idToOwnedIndex[tokenId];\r\n        delete _ownedTokens[from][lastTokenIndex];\r\n    }\r\n    function _removeTokenFromAllTokens(uint tokenId) private {\r\n        uint lastTokenIndex = _allNfts.length - 1;\r\n        uint tokenIndex = _idToNftIndex[tokenId];\r\n        uint lastTokenId = _allNfts[lastTokenIndex];\r\n\r\n        _allNfts[tokenIndex] = lastTokenId;\r\n        _idToNftIndex[lastTokenId] = tokenIndex;\r\n\r\n        delete _idToNftIndex[tokenId];\r\n        _allNfts.pop();\r\n    }\r\n    function _addTokenToAllTokens(uint tokenId) private {\r\n        _idToNftIndex[tokenId] = _allNfts.length;\r\n        _allNfts.push(tokenId);\r\n    }\r\n\r\n}\r\n\r\n\r\n\r\n// buy/sell nft\r\n// listingNft\r\n// mintNft -> id - number\r\n// remove listingnft\r\n",
  "sourcePath": "D:\\Study\\BlockChain\\vbi-nft\\client\\contracts\\NftMarket.sol",
  "compiler": {
    "name": "solc",
    "version": "0.8.17+commit.8df45f5f.Emscripten.clang"
  },
  "schemaVersion": "3.4.10",
  "updatedAt": "2022-11-02T14:12:30.736Z",
  "networkType": "ethereum",
  "devdoc": {
    "kind": "dev",
    "methods": {
      "approve(address,uint256)": {
        "details": "See {IERC721-approve}."
      },
      "balanceOf(address)": {
        "details": "See {IERC721-balanceOf}."
      },
      "getApproved(uint256)": {
        "details": "See {IERC721-getApproved}."
      },
      "isApprovedForAll(address,address)": {
        "details": "See {IERC721-isApprovedForAll}."
      },
      "name()": {
        "details": "See {IERC721Metadata-name}."
      },
      "owner()": {
        "details": "Returns the address of the current owner."
      },
      "ownerOf(uint256)": {
        "details": "See {IERC721-ownerOf}."
      },
      "renounceOwnership()": {
        "details": "Leaves the contract without owner. It will not be possible to call `onlyOwner` functions anymore. Can only be called by the current owner. NOTE: Renouncing ownership will leave the contract without an owner, thereby removing any functionality that is only available to the owner."
      },
      "safeTransferFrom(address,address,uint256)": {
        "details": "See {IERC721-safeTransferFrom}."
      },
      "safeTransferFrom(address,address,uint256,bytes)": {
        "details": "See {IERC721-safeTransferFrom}."
      },
      "setApprovalForAll(address,bool)": {
        "details": "See {IERC721-setApprovalForAll}."
      },
      "supportsInterface(bytes4)": {
        "details": "See {IERC165-supportsInterface}."
      },
      "symbol()": {
        "details": "See {IERC721Metadata-symbol}."
      },
      "tokenURI(uint256)": {
        "details": "See {IERC721Metadata-tokenURI}."
      },
      "transferFrom(address,address,uint256)": {
        "details": "See {IERC721-transferFrom}."
      },
      "transferOwnership(address)": {
        "details": "Transfers ownership of the contract to a new account (`newOwner`). Can only be called by the current owner."
      }
    },
    "version": 1
  },
  "userdoc": {
    "kind": "user",
    "methods": {},
    "version": 1
  }
}