{
  "_format": "hh-sol-artifact-1",
  "contractName": "Lock",
  "sourceName": "contracts/Lock.sol",
  "abi": [
    {
      "inputs": [],
      "stateMutability": "nonpayable",
      "type": "constructor"
    },
    {
      "inputs": [
        {
          "internalType": "uint256",
          "name": "",
          "type": "uint256"
        }
      ],
      "name": "gamers",
      "outputs": [
        {
          "internalType": "address",
          "name": "",
          "type": "address"
        }
      ],
      "stateMutability": "view",
      "type": "function"
    },
    {
      "inputs": [],
      "name": "joinZoom",
      "outputs": [],
      "stateMutability": "nonpayable",
      "type": "function"
    },
    {
      "inputs": [
        {
          "internalType": "enum Lock.Gametype",
          "name": "r",
          "type": "uint8"
        }
      ],
      "name": "play",
      "outputs": [],
      "stateMutability": "nonpayable",
      "type": "function"
    },
    {
      "inputs": [
        {
          "internalType": "address",
          "name": "",
          "type": "address"
        }
      ],
      "name": "points",
      "outputs": [
        {
          "internalType": "enum Lock.Gametype",
          "name": "",
          "type": "uint8"
        }
      ],
      "stateMutability": "view",
      "type": "function"
    },
    {
      "inputs": [],
      "name": "reset",
      "outputs": [],
      "stateMutability": "nonpayable",
      "type": "function"
    },
    {
      "inputs": [],
      "name": "winnerPlayer",
      "outputs": [
        {
          "internalType": "address",
          "name": "wd",
          "type": "address"
        }
      ],
      "stateMutability": "view",
      "type": "function"
    }
  ],
  "bytecode": "0x608060405234801561001057600080fd5b50336000806101000a81548173ffffffffffffffffffffffffffffffffffffffff021916908373ffffffffffffffffffffffffffffffffffffffff160217905550610c5c806100606000396000f3fe608060405234801561001057600080fd5b50600436106100625760003560e01c8063358b81661461006757806353a04b0514610097578063654b878d146100b35780638db23a4e146100d1578063abf57908146100db578063d826f88f1461010b575b600080fd5b610081600480360381019061007c919061085e565b610115565b60405161008e9190610902565b60405180910390f35b6100b160048036038101906100ac9190610942565b610135565b005b6100bb61030a565b6040516100c8919061097e565b60405180910390f35b6100d96105e3565b005b6100f560048036038101906100f091906109cf565b61071e565b604051610102919061097e565b60405180910390f35b61011361075d565b005b60026020528060005260406000206000915054906101000a900460ff1681565b3373ffffffffffffffffffffffffffffffffffffffff1660008054906101000a900473ffffffffffffffffffffffffffffffffffffffff1673ffffffffffffffffffffffffffffffffffffffff16146101c3576040517f08c379a00000000000000000000000000000000000000000000000000000000081526004016101ba90610a59565b60405180910390fd5b60005b600180549050811015610306576000600182815481106101e9576101e8610a79565b5b9060005260206000200160009054906101000a900473ffffffffffffffffffffffffffffffffffffffff1673ffffffffffffffffffffffffffffffffffffffff163373ffffffffffffffffffffffffffffffffffffffff160361024b57600190505b8061028b576040517f08c379a000000000000000000000000000000000000000000000000000000000815260040161028290610af4565b60405180910390fd5b82600260003373ffffffffffffffffffffffffffffffffffffffff1673ffffffffffffffffffffffffffffffffffffffff16815260200190815260200160002060006101000a81548160ff021916908360038111156102ed576102ec61088b565b5b02179055505080806102fe90610b43565b9150506101c6565b5050565b600080600160008154811061032257610321610a79565b5b9060005260206000200160009054906101000a900473ffffffffffffffffffffffffffffffffffffffff1690506000600160028154811061036657610365610a79565b5b9060005260206000200160009054906101000a900473ffffffffffffffffffffffffffffffffffffffff1690508192506000600260008473ffffffffffffffffffffffffffffffffffffffff1673ffffffffffffffffffffffffffffffffffffffff16815260200190815260200160002060009054906101000a900460ff1690506000600260008473ffffffffffffffffffffffffffffffffffffffff1673ffffffffffffffffffffffffffffffffffffffff16815260200190815260200160002060009054906101000a900460ff1690506001600381111561044c5761044b61088b565b5b82600381111561045f5761045e61088b565b5b036104c457600260038111156104785761047761088b565b5b81600381111561048b5761048a61088b565b5b03610494578294505b6003808111156104a7576104a661088b565b5b8160038111156104ba576104b961088b565b5b036104c3578394505b5b600260038111156104d8576104d761088b565b5b8260038111156104eb576104ea61088b565b5b03610550576003808111156105035761050261088b565b5b8160038111156105165761051561088b565b5b0361051f578394505b600160038111156105335761053261088b565b5b8160038111156105465761054561088b565b5b0361054f578294505b5b6003808111156105635761056261088b565b5b8260038111156105765761057561088b565b5b036105dc576002600381111561058f5761058e61088b565b5b8160038111156105a2576105a161088b565b5b036105ab578394505b600160038111156105bf576105be61088b565b5b8160038111156105d2576105d161088b565b5b036105db578294505b5b5050505090565b3373ffffffffffffffffffffffffffffffffffffffff1660008054906101000a900473ffffffffffffffffffffffffffffffffffffffff1673ffffffffffffffffffffffffffffffffffffffff1614610671576040517f08c379a000000000000000000000000000000000000000000000000000000000815260040161066890610a59565b60405180910390fd5b6002600180549050116106b9576040517f08c379a00000000000000000000000000000000000000000000000000000000081526004016106b090610bd7565b60405180910390fd5b6001339080600181540180825580915050600190039060005260206000200160009091909190916101000a81548173ffffffffffffffffffffffffffffffffffffffff021916908373ffffffffffffffffffffffffffffffffffffffff160217905550565b6001818154811061072e57600080fd5b906000526020600020016000915054906101000a900473ffffffffffffffffffffffffffffffffffffffff1681565b6002600180549050036107f957600180548061077c5761077b610bf7565b5b6001900381819060005260206000200160006101000a81549073ffffffffffffffffffffffffffffffffffffffff0219169055905560018054806107c3576107c2610bf7565b5b6001900381819060005260206000200160006101000a81549073ffffffffffffffffffffffffffffffffffffffff021916905590555b565b600080fd5b600073ffffffffffffffffffffffffffffffffffffffff82169050919050565b600061082b82610800565b9050919050565b61083b81610820565b811461084657600080fd5b50565b60008135905061085881610832565b92915050565b600060208284031215610874576108736107fb565b5b600061088284828501610849565b91505092915050565b7f4e487b7100000000000000000000000000000000000000000000000000000000600052602160045260246000fd5b600481106108cb576108ca61088b565b5b50565b60008190506108dc826108ba565b919050565b60006108ec826108ce565b9050919050565b6108fc816108e1565b82525050565b600060208201905061091760008301846108f3565b92915050565b6004811061092a57600080fd5b50565b60008135905061093c8161091d565b92915050565b600060208284031215610958576109576107fb565b5b60006109668482850161092d565b91505092915050565b61097881610820565b82525050565b6000602082019050610993600083018461096f565b92915050565b6000819050919050565b6109ac81610999565b81146109b757600080fd5b50565b6000813590506109c9816109a3565b92915050565b6000602082840312156109e5576109e46107fb565b5b60006109f3848285016109ba565b91505092915050565b600082825260208201905092915050565b7f796f7520617265206d75737420706c6179657200000000000000000000000000600082015250565b6000610a436013836109fc565b9150610a4e82610a0d565b602082019050919050565b60006020820190508181036000830152610a7281610a36565b9050919050565b7f4e487b7100000000000000000000000000000000000000000000000000000000600052603260045260246000fd5b7f796f752063616e277420706c6179207468652067616d65000000000000000000600082015250565b6000610ade6017836109fc565b9150610ae982610aa8565b602082019050919050565b60006020820190508181036000830152610b0d81610ad1565b9050919050565b7f4e487b7100000000000000000000000000000000000000000000000000000000600052601160045260246000fd5b6000610b4e82610999565b91507fffffffffffffffffffffffffffffffffffffffffffffffffffffffffffffffff8203610b8057610b7f610b14565b5b600182019050919050565b7f5a6f6f6d20636c6f736564000000000000000000000000000000000000000000600082015250565b6000610bc1600b836109fc565b9150610bcc82610b8b565b602082019050919050565b60006020820190508181036000830152610bf081610bb4565b9050919050565b7f4e487b7100000000000000000000000000000000000000000000000000000000600052603160045260246000fdfea2646970667358221220b626dd474e1cd3db006f2423b516c0b9ba87e874e4b846e222e779036efb765664736f6c63430008110033",
  "linkReferences": {},
  "deployedLinkReferences": {}
}